{
  "contractName": "BEP20",
  "abi": [
    {
      "inputs": [
        {
          "internalType": "address",
          "name": "wallet1",
          "type": "address"
        },
        {
          "internalType": "address",
          "name": "wallet2",
          "type": "address"
        },
        {
          "internalType": "address",
          "name": "wallet3",
          "type": "address"
        },
        {
          "internalType": "address",
          "name": "wallet4",
          "type": "address"
        },
        {
          "internalType": "address",
          "name": "wallet5",
          "type": "address"
        },
        {
          "internalType": "address",
          "name": "wallet6",
          "type": "address"
        }
      ],
      "stateMutability": "nonpayable",
      "type": "constructor"
    },
    {
      "anonymous": false,
      "inputs": [
        {
          "indexed": true,
          "internalType": "address",
          "name": "owner",
          "type": "address"
        },
        {
          "indexed": true,
          "internalType": "address",
          "name": "spender",
          "type": "address"
        },
        {
          "indexed": false,
          "internalType": "uint256",
          "name": "value",
          "type": "uint256"
        }
      ],
      "name": "Approval",
      "type": "event"
    },
    {
      "anonymous": false,
      "inputs": [
        {
          "indexed": true,
          "internalType": "address",
          "name": "previousOwner",
          "type": "address"
        },
        {
          "indexed": true,
          "internalType": "address",
          "name": "newOwner",
          "type": "address"
        }
      ],
      "name": "OwnershipTransferred",
      "type": "event"
    },
    {
      "anonymous": false,
      "inputs": [
        {
          "indexed": true,
          "internalType": "address",
          "name": "from",
          "type": "address"
        },
        {
          "indexed": true,
          "internalType": "address",
          "name": "to",
          "type": "address"
        },
        {
          "indexed": false,
          "internalType": "uint256",
          "name": "value",
          "type": "uint256"
        }
      ],
      "name": "Transfer",
      "type": "event"
    },
    {
      "inputs": [],
      "name": "owner",
      "outputs": [
        {
          "internalType": "address",
          "name": "",
          "type": "address"
        }
      ],
      "stateMutability": "view",
      "type": "function",
      "constant": true
    },
    {
      "inputs": [],
      "name": "renounceOwnership",
      "outputs": [],
      "stateMutability": "nonpayable",
      "type": "function"
    },
    {
      "inputs": [
        {
          "internalType": "address",
          "name": "newOwner",
          "type": "address"
        }
      ],
      "name": "transferOwnership",
      "outputs": [],
      "stateMutability": "nonpayable",
      "type": "function"
    },
    {
      "inputs": [],
      "name": "getOwner",
      "outputs": [
        {
          "internalType": "address",
          "name": "",
          "type": "address"
        }
      ],
      "stateMutability": "view",
      "type": "function",
      "constant": true
    },
    {
      "inputs": [],
      "name": "getRound3Add",
      "outputs": [
        {
          "internalType": "address",
          "name": "",
          "type": "address"
        }
      ],
      "stateMutability": "view",
      "type": "function",
      "constant": true
    },
    {
      "inputs": [],
      "name": "getRaound2Add",
      "outputs": [
        {
          "internalType": "address",
          "name": "",
          "type": "address"
        }
      ],
      "stateMutability": "view",
      "type": "function",
      "constant": true
    },
    {
      "inputs": [],
      "name": "getRound1Add",
      "outputs": [
        {
          "internalType": "address",
          "name": "",
          "type": "address"
        }
      ],
      "stateMutability": "view",
      "type": "function",
      "constant": true
    },
    {
      "inputs": [],
      "name": "getPrivateSaleAdd",
      "outputs": [
        {
          "internalType": "address",
          "name": "",
          "type": "address"
        }
      ],
      "stateMutability": "view",
      "type": "function",
      "constant": true
    },
    {
      "inputs": [],
      "name": "getTeamAdd",
      "outputs": [
        {
          "internalType": "address",
          "name": "",
          "type": "address"
        }
      ],
      "stateMutability": "view",
      "type": "function",
      "constant": true
    },
    {
      "inputs": [],
      "name": "getReserveAdd",
      "outputs": [
        {
          "internalType": "address",
          "name": "",
          "type": "address"
        }
      ],
      "stateMutability": "view",
      "type": "function",
      "constant": true
    },
    {
      "inputs": [],
      "name": "decimals",
      "outputs": [
        {
          "internalType": "uint8",
          "name": "",
          "type": "uint8"
        }
      ],
      "stateMutability": "view",
      "type": "function",
      "constant": true
    },
    {
      "inputs": [],
      "name": "symbol",
      "outputs": [
        {
          "internalType": "string",
          "name": "",
          "type": "string"
        }
      ],
      "stateMutability": "view",
      "type": "function",
      "constant": true
    },
    {
      "inputs": [],
      "name": "name",
      "outputs": [
        {
          "internalType": "string",
          "name": "",
          "type": "string"
        }
      ],
      "stateMutability": "view",
      "type": "function",
      "constant": true
    },
    {
      "inputs": [],
      "name": "totalSupply",
      "outputs": [
        {
          "internalType": "uint256",
          "name": "",
          "type": "uint256"
        }
      ],
      "stateMutability": "view",
      "type": "function",
      "constant": true
    },
    {
      "inputs": [
        {
          "internalType": "address",
          "name": "account",
          "type": "address"
        }
      ],
      "name": "balanceOf",
      "outputs": [
        {
          "internalType": "uint256",
          "name": "",
          "type": "uint256"
        }
      ],
      "stateMutability": "view",
      "type": "function",
      "constant": true
    },
    {
      "inputs": [],
      "name": "maxSupply",
      "outputs": [
        {
          "internalType": "uint256",
          "name": "",
          "type": "uint256"
        }
      ],
      "stateMutability": "view",
      "type": "function",
      "constant": true
    },
    {
      "inputs": [],
      "name": "getEndOfICO",
      "outputs": [
        {
          "internalType": "uint256",
          "name": "",
          "type": "uint256"
        }
      ],
      "stateMutability": "view",
      "type": "function",
      "constant": true
    },
    {
      "inputs": [],
      "name": "startTime",
      "outputs": [
        {
          "internalType": "uint256",
          "name": "",
          "type": "uint256"
        }
      ],
      "stateMutability": "view",
      "type": "function",
      "constant": true
    },
    {
      "inputs": [
        {
          "internalType": "address",
          "name": "recipient",
          "type": "address"
        },
        {
          "internalType": "uint256",
          "name": "amount",
          "type": "uint256"
        }
      ],
      "name": "transfer",
      "outputs": [
        {
          "internalType": "bool",
          "name": "",
          "type": "bool"
        }
      ],
      "stateMutability": "nonpayable",
      "type": "function"
    },
    {
      "inputs": [
        {
          "internalType": "address",
          "name": "owner",
          "type": "address"
        },
        {
          "internalType": "address",
          "name": "spender",
          "type": "address"
        }
      ],
      "name": "allowance",
      "outputs": [
        {
          "internalType": "uint256",
          "name": "",
          "type": "uint256"
        }
      ],
      "stateMutability": "view",
      "type": "function",
      "constant": true
    },
    {
      "inputs": [
        {
          "internalType": "address",
          "name": "spender",
          "type": "address"
        },
        {
          "internalType": "uint256",
          "name": "amount",
          "type": "uint256"
        }
      ],
      "name": "approve",
      "outputs": [
        {
          "internalType": "bool",
          "name": "",
          "type": "bool"
        }
      ],
      "stateMutability": "nonpayable",
      "type": "function"
    },
    {
      "inputs": [
        {
          "internalType": "address",
          "name": "sender",
          "type": "address"
        },
        {
          "internalType": "address",
          "name": "recipient",
          "type": "address"
        },
        {
          "internalType": "uint256",
          "name": "amount",
          "type": "uint256"
        }
      ],
      "name": "transferFrom",
      "outputs": [
        {
          "internalType": "bool",
          "name": "",
          "type": "bool"
        }
      ],
      "stateMutability": "nonpayable",
      "type": "function"
    },
    {
      "inputs": [
        {
          "internalType": "address",
          "name": "spender",
          "type": "address"
        },
        {
          "internalType": "uint256",
          "name": "addedValue",
          "type": "uint256"
        }
      ],
      "name": "increaseAllowance",
      "outputs": [
        {
          "internalType": "bool",
          "name": "",
          "type": "bool"
        }
      ],
      "stateMutability": "nonpayable",
      "type": "function"
    },
    {
      "inputs": [
        {
          "internalType": "address",
          "name": "spender",
          "type": "address"
        },
        {
          "internalType": "uint256",
          "name": "subtractedValue",
          "type": "uint256"
        }
      ],
      "name": "decreaseAllowance",
      "outputs": [
        {
          "internalType": "bool",
          "name": "",
          "type": "bool"
        }
      ],
      "stateMutability": "nonpayable",
      "type": "function"
    },
    {
      "inputs": [
        {
          "internalType": "uint256",
          "name": "mintValue",
          "type": "uint256"
        }
      ],
      "name": "mint",
      "outputs": [
        {
          "internalType": "bool",
          "name": "",
          "type": "bool"
        }
      ],
      "stateMutability": "nonpayable",
      "type": "function"
    },
    {
      "inputs": [
        {
          "internalType": "uint256",
          "name": "amount",
          "type": "uint256"
        }
      ],
      "name": "burn",
      "outputs": [
        {
          "internalType": "bool",
          "name": "",
          "type": "bool"
        }
      ],
      "stateMutability": "nonpayable",
      "type": "function"
    },
    {
      "inputs": [
        {
          "internalType": "address",
          "name": "account",
          "type": "address"
        },
        {
          "internalType": "uint256",
          "name": "amount",
          "type": "uint256"
        }
      ],
      "name": "burnFrom",
      "outputs": [
        {
          "internalType": "bool",
          "name": "",
          "type": "bool"
        }
      ],
      "stateMutability": "nonpayable",
      "type": "function"
    }
  ],
  "bytecode": "0x6101206040523480156200001257600080fd5b5060405162003e7538038062003e75833981810160405281019062000038919062000cbd565b60006200004a620009ee60201b60201c565b9050806000806101000a81548173ffffffffffffffffffffffffffffffffffffffff021916908373ffffffffffffffffffffffffffffffffffffffff1602179055508073ffffffffffffffffffffffffffffffffffffffff16600073ffffffffffffffffffffffffffffffffffffffff167f8be0079c531659141344cd1fd0a4f28419497f9722a3daafe3b4186f6b6457e060405160405180910390a3506040518060400160405280600981526020017f5061727469636f696e0000000000000000000000000000000000000000000000815250601790805190602001906200013592919062000bf6565b506040518060400160405280600381526020017f5054430000000000000000000000000000000000000000000000000000000000815250601690805190602001906200018392919062000bf6565b506009601560006101000a81548160ff021916908360ff1602179055506000600160003373ffffffffffffffffffffffffffffffffffffffff1673ffffffffffffffffffffffffffffffffffffffff1681526020019081526020016000208190555042601881905550600262278d00620001fe91906200104f565b6018546200020d919062000e5a565b601981905550600362278d006200022591906200104f565b60185462000234919062000e5a565b601a81905550600562278d006200024c91906200104f565b6018546200025b919062000e5a565b601b81905550600762278d006200027391906200104f565b60185462000282919062000e5a565b601c819055506007600a62000298919062000f12565b64011a7b515f620002aa91906200104f565b600981905550601560009054906101000a900460ff1660ff16600a620002d1919062000f12565b63014f20cb620002e291906200104f565b600a81905550601560009054906101000a900460ff1660ff16600a62000309919062000f12565b626a50bd6200031991906200104f565b600b819055506002600a6200032f919062000f12565b6565e9387084d96200034291906200104f565b600c819055506008600a62000358919062000f12565b63090db9b86200036991906200104f565b600d819055506007600a6200037f919062000f12565b6404f72aee2e6200039191906200104f565b600f81905550601560009054906101000a900460ff1660ff16600a620003b8919062000f12565b63013d7d62620003c991906200104f565b601081905550601560009054906101000a900460ff1660ff16600a620003f0919062000f12565b628dc0fc6200040091906200104f565b6011819055506002600a62000416919062000f12565b6565e938648cea6200042991906200104f565b6012819055506008600a6200043f919062000f12565b63090db9b86200045091906200104f565b601381905550601560009054906101000a900460ff1660ff16600a62000477919062000f12565b63042fd4316200048891906200104f565b601481905550601560009054906101000a900460ff1660ff16600a620004af919062000f12565b63585cbdf7620004c091906200104f565b60a08181525050601560009054906101000a900460ff1660ff16600a620004e8919062000f12565b63058989d8620004f991906200104f565b60c08181525050601560009054906101000a900460ff1660ff16600a62000521919062000f12565b6304acd9246200053291906200104f565b60e08181525050601560009054906101000a900460ff1660ff16600a6200055a919062000f12565b630486dcdc6200056b91906200104f565b6101008181525050601560009054906101000a900460ff1660ff16600a62000594919062000f12565b636b49d200620005a591906200104f565b608081815250506000600860006101000a81548160ff02191690831515021790555085601d60006101000a81548173ffffffffffffffffffffffffffffffffffffffff021916908373ffffffffffffffffffffffffffffffffffffffff16021790555084601e60006101000a81548173ffffffffffffffffffffffffffffffffffffffff021916908373ffffffffffffffffffffffffffffffffffffffff16021790555083601f60006101000a81548173ffffffffffffffffffffffffffffffffffffffff021916908373ffffffffffffffffffffffffffffffffffffffff16021790555082602060006101000a81548173ffffffffffffffffffffffffffffffffffffffff021916908373ffffffffffffffffffffffffffffffffffffffff16021790555081602160006101000a81548173ffffffffffffffffffffffffffffffffffffffff021916908373ffffffffffffffffffffffffffffffffffffffff16021790555080602260006101000a81548173ffffffffffffffffffffffffffffffffffffffff021916908373ffffffffffffffffffffffffffffffffffffffff16021790555062000783601d60009054906101000a900473ffffffffffffffffffffffffffffffffffffffff16600f54620009f660201b60201c565b620007b9601e60009054906101000a900473ffffffffffffffffffffffffffffffffffffffff16601054620009f660201b60201c565b620007ef601f60009054906101000a900473ffffffffffffffffffffffffffffffffffffffff16601154620009f660201b60201c565b62000825602060009054906101000a900473ffffffffffffffffffffffffffffffffffffffff16601254620009f660201b60201c565b6200085b602160009054906101000a900473ffffffffffffffffffffffffffffffffffffffff16601354620009f660201b60201c565b62000891602260009054906101000a900473ffffffffffffffffffffffffffffffffffffffff16601454620009f660201b60201c565b620008af60135460075462000b9360201b620015681790919060201c565b600781905550620008d360125460065462000b9360201b620015681790919060201c565b600681905550620008f760115460055462000b9360201b620015681790919060201c565b6005819055506200093660105462000922600f5460045462000b9360201b620015681790919060201c565b62000b9360201b620015681790919060201c565b600481905550620009e1601454620009cd601354620009b9601254620009a5601154620009916010546200097d600f5460035462000b9360201b620015681790919060201c565b62000b9360201b620015681790919060201c565b62000b9360201b620015681790919060201c565b62000b9360201b620015681790919060201c565b62000b9360201b620015681790919060201c565b62000b9360201b620015681790919060201c565b50505050505050620011a9565b600033905090565b600073ffffffffffffffffffffffffffffffffffffffff168273ffffffffffffffffffffffffffffffffffffffff16141562000a69576040517f08c379a000000000000000000000000000000000000000000000000000000000815260040162000a609062000e0a565b60405180910390fd5b62000a858160035462000b9360201b620015681790919060201c565b60038190555062000ae481600160008573ffffffffffffffffffffffffffffffffffffffff1673ffffffffffffffffffffffffffffffffffffffff1681526020019081526020016000205462000b9360201b620015681790919060201c565b600160008473ffffffffffffffffffffffffffffffffffffffff1673ffffffffffffffffffffffffffffffffffffffff168152602001908152602001600020819055508173ffffffffffffffffffffffffffffffffffffffff16600073ffffffffffffffffffffffffffffffffffffffff167fddf252ad1be2c89b69c2b068fc378daa952ba7f163c4a11628f55a4df523b3ef8360405162000b87919062000e2c565b60405180910390a35050565b600080828462000ba4919062000e5a565b90508381101562000bec576040517f08c379a000000000000000000000000000000000000000000000000000000000815260040162000be39062000de8565b60405180910390fd5b8091505092915050565b82805462000c0490620010ee565b90600052602060002090601f01602090048101928262000c28576000855562000c74565b82601f1062000c4357805160ff191683800117855562000c74565b8280016001018555821562000c74579182015b8281111562000c7357825182559160200191906001019062000c56565b5b50905062000c83919062000c87565b5090565b5b8082111562000ca257600081600090555060010162000c88565b5090565b60008151905062000cb7816200118f565b92915050565b60008060008060008060c0878903121562000cd757600080fd5b600062000ce789828a0162000ca6565b965050602062000cfa89828a0162000ca6565b955050604062000d0d89828a0162000ca6565b945050606062000d2089828a0162000ca6565b935050608062000d3389828a0162000ca6565b92505060a062000d4689828a0162000ca6565b9150509295509295509295565b600062000d62601b8362000e49565b91507f536166654d6174683a206164646974696f6e206f766572666c6f7700000000006000830152602082019050919050565b600062000da4601f8362000e49565b91507f42455032303a206d696e7420746f20746865207a65726f2061646472657373006000830152602082019050919050565b62000de281620010e4565b82525050565b6000602082019050818103600083015262000e038162000d53565b9050919050565b6000602082019050818103600083015262000e258162000d95565b9050919050565b600060208201905062000e43600083018462000dd7565b92915050565b600082825260208201905092915050565b600062000e6782620010e4565b915062000e7483620010e4565b9250827fffffffffffffffffffffffffffffffffffffffffffffffffffffffffffffffff0382111562000eac5762000eab62001124565b5b828201905092915050565b6000808291508390505b600185111562000f095780860481111562000ee15762000ee062001124565b5b600185161562000ef15780820291505b808102905062000f018562001182565b945062000ec1565b94509492505050565b600062000f1f82620010e4565b915062000f2c83620010e4565b925062000f5b7fffffffffffffffffffffffffffffffffffffffffffffffffffffffffffffffff848462000f63565b905092915050565b60008262000f75576001905062001048565b8162000f85576000905062001048565b816001811462000f9e576002811462000fa95762000fdf565b600191505062001048565b60ff84111562000fbe5762000fbd62001124565b5b8360020a91508482111562000fd85762000fd762001124565b5b5062001048565b5060208310610133831016604e8410600b8410161715620010195782820a90508381111562001013576200101262001124565b5b62001048565b62001028848484600162000eb7565b9250905081840481111562001042576200104162001124565b5b81810290505b9392505050565b60006200105c82620010e4565b91506200106983620010e4565b9250817fffffffffffffffffffffffffffffffffffffffffffffffffffffffffffffffff0483118215151615620010a557620010a462001124565b5b828202905092915050565b6000620010bd82620010c4565b9050919050565b600073ffffffffffffffffffffffffffffffffffffffff82169050919050565b6000819050919050565b600060028204905060018216806200110757607f821691505b602082108114156200111e576200111d62001153565b5b50919050565b7f4e487b7100000000000000000000000000000000000000000000000000000000600052601160045260246000fd5b7f4e487b7100000000000000000000000000000000000000000000000000000000600052602260045260246000fd5b60008160011c9050919050565b6200119a81620010b0565b8114620011a657600080fd5b50565b60805160a05160c05160e05161010051612c87620011ee600039600061118f01526000610ffe01526000610e6d01526000610c72015260006113f20152612c876000f3fe608060405234801561001057600080fd5b50600436106101a95760003560e01c806379cc6790116100f9578063a457c2d711610097578063d5abeb0111610071578063d5abeb01146104ee578063dd62ed3e1461050c578063e21b07091461053c578063f2fde38b1461055a576101a9565b8063a457c2d714610470578063a9059cbb146104a0578063b3875965146104d0576101a9565b8063893d20e8116100d3578063893d20e8146103e65780638da5cb5b1461040457806395d89b4114610422578063a0712d6814610440576101a9565b806379cc67901461037a5780637fd61b17146103aa57806387400584146103c8576101a9565b8063313ce567116101665780636811516311610140578063681151631461030457806370a0823114610322578063715018a61461035257806378e979251461035c576101a9565b8063313ce5671461028657806339509351146102a457806342966c68146102d4576101a9565b806306fdde03146101ae578063095ea7b3146101cc57806318160ddd146101fc5780631d99df5a1461021a57806323b872dd146102385780632514d1a514610268575b600080fd5b6101b6610576565b6040516101c39190612743565b60405180910390f35b6101e660048036038101906101e191906120dd565b610608565b6040516101f39190612728565b60405180910390f35b610204610626565b6040516102119190612965565b60405180910390f35b610222610630565b60405161022f919061270d565b60405180910390f35b610252600480360381019061024d919061208e565b61065a565b60405161025f9190612728565b60405180910390f35b610270610733565b60405161027d919061270d565b60405180910390f35b61028e61075d565b60405161029b9190612980565b60405180910390f35b6102be60048036038101906102b991906120dd565b610774565b6040516102cb9190612728565b60405180910390f35b6102ee60048036038101906102e99190612119565b610827565b6040516102fb9190612728565b60405180910390f35b61030c610843565b604051610319919061270d565b60405180910390f35b61033c60048036038101906103379190612029565b61086d565b6040516103499190612965565b60405180910390f35b61035a6108b6565b005b610364610a09565b6040516103719190612965565b60405180910390f35b610394600480360381019061038f91906120dd565b610a13565b6040516103a19190612728565b60405180910390f35b6103b2610a29565b6040516103bf919061270d565b60405180910390f35b6103d0610a53565b6040516103dd9190612965565b60405180910390f35b6103ee610a5d565b6040516103fb919061270d565b60405180910390f35b61040c610a6c565b604051610419919061270d565b60405180910390f35b61042a610a95565b6040516104379190612743565b60405180910390f35b61045a60048036038101906104559190612119565b610b27565b6040516104679190612728565b60405180910390f35b61048a600480360381019061048591906120dd565b6112d9565b6040516104979190612728565b60405180910390f35b6104ba60048036038101906104b591906120dd565b6113a6565b6040516104c79190612728565b60405180910390f35b6104d86113c4565b6040516104e5919061270d565b60405180910390f35b6104f66113ee565b6040516105039190612965565b60405180910390f35b61052660048036038101906105219190612052565b611416565b6040516105339190612965565b60405180910390f35b61054461149d565b604051610551919061270d565b60405180910390f35b610574600480360381019061056f9190612029565b6114c7565b005b60606017805461058590612ac9565b80601f01602080910402602001604051908101604052809291908181526020018280546105b190612ac9565b80156105fe5780601f106105d3576101008083540402835291602001916105fe565b820191906000526020600020905b8154815290600101906020018083116105e157829003601f168201915b5050505050905090565b600061061c6106156115c6565b84846115ce565b6001905092915050565b6000600354905090565b6000602160009054906101000a900473ffffffffffffffffffffffffffffffffffffffff16905090565b6000610667848484611799565b610728846106736115c6565b61072385604051806060016040528060288152602001612b9960289139600260008b73ffffffffffffffffffffffffffffffffffffffff1673ffffffffffffffffffffffffffffffffffffffff16815260200190815260200160002060006106d96115c6565b73ffffffffffffffffffffffffffffffffffffffff1673ffffffffffffffffffffffffffffffffffffffff16815260200190815260200160002054611a279092919063ffffffff16565b6115ce565b600190509392505050565b6000601e60009054906101000a900473ffffffffffffffffffffffffffffffffffffffff16905090565b6000601560009054906101000a900460ff16905090565b600061081d6107816115c6565b8461081885600260006107926115c6565b73ffffffffffffffffffffffffffffffffffffffff1673ffffffffffffffffffffffffffffffffffffffff16815260200190815260200160002060008973ffffffffffffffffffffffffffffffffffffffff1673ffffffffffffffffffffffffffffffffffffffff1681526020019081526020016000205461156890919063ffffffff16565b6115ce565b6001905092915050565b600061083a6108346115c6565b83611a8b565b60019050919050565b6000601d60009054906101000a900473ffffffffffffffffffffffffffffffffffffffff16905090565b6000600160008373ffffffffffffffffffffffffffffffffffffffff1673ffffffffffffffffffffffffffffffffffffffff168152602001908152602001600020549050919050565b6108be6115c6565b73ffffffffffffffffffffffffffffffffffffffff1660008054906101000a900473ffffffffffffffffffffffffffffffffffffffff1673ffffffffffffffffffffffffffffffffffffffff161461094b576040517f08c379a000000000000000000000000000000000000000000000000000000000815260040161094290612865565b60405180910390fd5b600073ffffffffffffffffffffffffffffffffffffffff1660008054906101000a900473ffffffffffffffffffffffffffffffffffffffff1673ffffffffffffffffffffffffffffffffffffffff167f8be0079c531659141344cd1fd0a4f28419497f9722a3daafe3b4186f6b6457e060405160405180910390a360008060006101000a81548173ffffffffffffffffffffffffffffffffffffffff021916908373ffffffffffffffffffffffffffffffffffffffff160217905550565b6000601854905090565b6000610a1f8383611c2f565b6001905092915050565b6000602260009054906101000a900473ffffffffffffffffffffffffffffffffffffffff16905090565b6000601854905090565b6000610a67610a6c565b905090565b60008060009054906101000a900473ffffffffffffffffffffffffffffffffffffffff16905090565b606060168054610aa490612ac9565b80601f0160208091040260200160405190810160405280929190818152602001828054610ad090612ac9565b8015610b1d5780601f10610af257610100808354040283529160200191610b1d565b820191906000526020600020905b815481529060010190602001808311610b0057829003601f168201915b5050505050905090565b6000610b316115c6565b73ffffffffffffffffffffffffffffffffffffffff1660008054906101000a900473ffffffffffffffffffffffffffffffffffffffff1673ffffffffffffffffffffffffffffffffffffffff1614610bbe576040517f08c379a0000000000000000000000000000000000000000000000000000000008152600401610bb590612865565b60405180910390fd5b6006821480610bcd5750600482145b80610bd85750600382145b80610be35750600282145b610c22576040517f08c379a0000000000000000000000000000000000000000000000000000000008152600401610c19906127e5565b60405180910390fd5b6006821415610e1d57601c54421015610c70576040517f08c379a0000000000000000000000000000000000000000000000000000000008152600401610c67906128c5565b60405180910390fd5b7f0000000000000000000000000000000000000000000000000000000000000000610cbc600a54610cae60095460045461156890919063ffffffff16565b61156890919063ffffffff16565b1115610cfd576040517f08c379a0000000000000000000000000000000000000000000000000000000008152600401610cf490612905565b60405180910390fd5b610d056113ee565b610d30600a54610d2260095460035461156890919063ffffffff16565b61156890919063ffffffff16565b1115610d71576040517f08c379a0000000000000000000000000000000000000000000000000000000008152600401610d6890612925565b60405180910390fd5b610d9f601d60009054906101000a900473ffffffffffffffffffffffffffffffffffffffff16600954611cfe565b610dcd601e60009054906101000a900473ffffffffffffffffffffffffffffffffffffffff16600a54611cfe565b610df8600a54610dea60095460045461156890919063ffffffff16565b61156890919063ffffffff16565b600481905550610e1662278d00601c5461156890919063ffffffff16565b601c819055505b6004821415610fae57601b54421015610e6b576040517f08c379a0000000000000000000000000000000000000000000000000000000008152600401610e62906128c5565b60405180910390fd5b7f0000000000000000000000000000000000000000000000000000000000000000610ea3600b5460055461156890919063ffffffff16565b1115610ee4576040517f08c379a0000000000000000000000000000000000000000000000000000000008152600401610edb90612805565b60405180910390fd5b610eec6113ee565b610f03600b5460035461156890919063ffffffff16565b1115610f44576040517f08c379a0000000000000000000000000000000000000000000000000000000008152600401610f3b90612925565b60405180910390fd5b610f72601f60009054906101000a900473ffffffffffffffffffffffffffffffffffffffff16600b54611cfe565b610f89600b5460055461156890919063ffffffff16565b600581905550610fa762278d00601b5461156890919063ffffffff16565b601b819055505b600382141561113f57601a54421015610ffc576040517f08c379a0000000000000000000000000000000000000000000000000000000008152600401610ff3906128c5565b60405180910390fd5b7f0000000000000000000000000000000000000000000000000000000000000000611034600c5460065461156890919063ffffffff16565b1115611075576040517f08c379a000000000000000000000000000000000000000000000000000000000815260040161106c90612885565b60405180910390fd5b61107d6113ee565b611094600c5460035461156890919063ffffffff16565b11156110d5576040517f08c379a00000000000000000000000000000000000000000000000000000000081526004016110cc90612925565b60405180910390fd5b611103602060009054906101000a900473ffffffffffffffffffffffffffffffffffffffff16600c54611cfe565b61111a600c5460065461156890919063ffffffff16565b60068190555061113862278d00601a5461156890919063ffffffff16565b601a819055505b60028214156112d05760195442101561118d576040517f08c379a0000000000000000000000000000000000000000000000000000000008152600401611184906128c5565b60405180910390fd5b7f00000000000000000000000000000000000000000000000000000000000000006111c5600d5460075461156890919063ffffffff16565b1115611206576040517f08c379a00000000000000000000000000000000000000000000000000000000081526004016111fd90612825565b60405180910390fd5b61120e6113ee565b611225600d5460035461156890919063ffffffff16565b1115611266576040517f08c379a000000000000000000000000000000000000000000000000000000000815260040161125d90612925565b60405180910390fd5b611294602160009054906101000a900473ffffffffffffffffffffffffffffffffffffffff16600d54611cfe565b6112ab600d5460075461156890919063ffffffff16565b6007819055506112c962278d0060195461156890919063ffffffff16565b6019819055505b60019050919050565b600061139c6112e66115c6565b8461139785604051806060016040528060258152602001612be760259139600260006113106115c6565b73ffffffffffffffffffffffffffffffffffffffff1673ffffffffffffffffffffffffffffffffffffffff16815260200190815260200160002060008a73ffffffffffffffffffffffffffffffffffffffff1673ffffffffffffffffffffffffffffffffffffffff16815260200190815260200160002054611a279092919063ffffffff16565b6115ce565b6001905092915050565b60006113ba6113b36115c6565b8484611799565b6001905092915050565b6000602060009054906101000a900473ffffffffffffffffffffffffffffffffffffffff16905090565b60007f0000000000000000000000000000000000000000000000000000000000000000905090565b6000600260008473ffffffffffffffffffffffffffffffffffffffff1673ffffffffffffffffffffffffffffffffffffffff16815260200190815260200160002060008373ffffffffffffffffffffffffffffffffffffffff1673ffffffffffffffffffffffffffffffffffffffff16815260200190815260200160002054905092915050565b6000601f60009054906101000a900473ffffffffffffffffffffffffffffffffffffffff16905090565b6114cf6115c6565b73ffffffffffffffffffffffffffffffffffffffff1660008054906101000a900473ffffffffffffffffffffffffffffffffffffffff1673ffffffffffffffffffffffffffffffffffffffff161461155c576040517f08c379a000000000000000000000000000000000000000000000000000000000815260040161155390612865565b60405180910390fd5b61156581611e88565b50565b600080828461157791906129b7565b9050838110156115bc576040517f08c379a00000000000000000000000000000000000000000000000000000000081526004016115b3906127c5565b60405180910390fd5b8091505092915050565b600033905090565b600073ffffffffffffffffffffffffffffffffffffffff168373ffffffffffffffffffffffffffffffffffffffff16141561163e576040517f08c379a000000000000000000000000000000000000000000000000000000000815260040161163590612785565b60405180910390fd5b600073ffffffffffffffffffffffffffffffffffffffff168273ffffffffffffffffffffffffffffffffffffffff1614156116ae576040517f08c379a00000000000000000000000000000000000000000000000000000000081526004016116a590612945565b60405180910390fd5b80600260008573ffffffffffffffffffffffffffffffffffffffff1673ffffffffffffffffffffffffffffffffffffffff16815260200190815260200160002060008473ffffffffffffffffffffffffffffffffffffffff1673ffffffffffffffffffffffffffffffffffffffff168152602001908152602001600020819055508173ffffffffffffffffffffffffffffffffffffffff168373ffffffffffffffffffffffffffffffffffffffff167f8c5be1e5ebec7d5bd14f71427d1e84f3dd0314c0f7b2291e5b200ac8c7c3b9258360405161178c9190612965565b60405180910390a3505050565b600073ffffffffffffffffffffffffffffffffffffffff168373ffffffffffffffffffffffffffffffffffffffff161415611809576040517f08c379a000000000000000000000000000000000000000000000000000000000815260040161180090612765565b60405180910390fd5b600073ffffffffffffffffffffffffffffffffffffffff168273ffffffffffffffffffffffffffffffffffffffff161415611879576040517f08c379a0000000000000000000000000000000000000000000000000000000008152600401611870906128a5565b60405180910390fd5b6118e581604051806060016040528060268152602001612bc160269139600160008773ffffffffffffffffffffffffffffffffffffffff1673ffffffffffffffffffffffffffffffffffffffff16815260200190815260200160002054611a279092919063ffffffff16565b600160008573ffffffffffffffffffffffffffffffffffffffff1673ffffffffffffffffffffffffffffffffffffffff1681526020019081526020016000208190555061197a81600160008573ffffffffffffffffffffffffffffffffffffffff1673ffffffffffffffffffffffffffffffffffffffff1681526020019081526020016000205461156890919063ffffffff16565b600160008473ffffffffffffffffffffffffffffffffffffffff1673ffffffffffffffffffffffffffffffffffffffff168152602001908152602001600020819055508173ffffffffffffffffffffffffffffffffffffffff168373ffffffffffffffffffffffffffffffffffffffff167fddf252ad1be2c89b69c2b068fc378daa952ba7f163c4a11628f55a4df523b3ef83604051611a1a9190612965565b60405180910390a3505050565b6000838311158290611a6f576040517f08c379a0000000000000000000000000000000000000000000000000000000008152600401611a669190612743565b60405180910390fd5b5060008385611a7e9190612a0d565b9050809150509392505050565b600073ffffffffffffffffffffffffffffffffffffffff168273ffffffffffffffffffffffffffffffffffffffff161415611afb576040517f08c379a0000000000000000000000000000000000000000000000000000000008152600401611af2906128e5565b60405180910390fd5b611b6781604051806060016040528060228152602001612c0c60229139600160008673ffffffffffffffffffffffffffffffffffffffff1673ffffffffffffffffffffffffffffffffffffffff16815260200190815260200160002054611a279092919063ffffffff16565b600160008473ffffffffffffffffffffffffffffffffffffffff1673ffffffffffffffffffffffffffffffffffffffff16815260200190815260200160002081905550611bbf81600354611fb590919063ffffffff16565b600381905550600073ffffffffffffffffffffffffffffffffffffffff168273ffffffffffffffffffffffffffffffffffffffff167fddf252ad1be2c89b69c2b068fc378daa952ba7f163c4a11628f55a4df523b3ef83604051611c239190612965565b60405180910390a35050565b611cf082611c3b6115c6565b611ceb84604051806060016040528060248152602001612c2e60249139600260008973ffffffffffffffffffffffffffffffffffffffff1673ffffffffffffffffffffffffffffffffffffffff1681526020019081526020016000206000611ca16115c6565b73ffffffffffffffffffffffffffffffffffffffff1673ffffffffffffffffffffffffffffffffffffffff16815260200190815260200160002054611a279092919063ffffffff16565b6115ce565b611cfa8282611a8b565b5050565b600073ffffffffffffffffffffffffffffffffffffffff168273ffffffffffffffffffffffffffffffffffffffff161415611d6e576040517f08c379a0000000000000000000000000000000000000000000000000000000008152600401611d6590612845565b60405180910390fd5b611d838160035461156890919063ffffffff16565b600381905550611ddb81600160008573ffffffffffffffffffffffffffffffffffffffff1673ffffffffffffffffffffffffffffffffffffffff1681526020019081526020016000205461156890919063ffffffff16565b600160008473ffffffffffffffffffffffffffffffffffffffff1673ffffffffffffffffffffffffffffffffffffffff168152602001908152602001600020819055508173ffffffffffffffffffffffffffffffffffffffff16600073ffffffffffffffffffffffffffffffffffffffff167fddf252ad1be2c89b69c2b068fc378daa952ba7f163c4a11628f55a4df523b3ef83604051611e7c9190612965565b60405180910390a35050565b600073ffffffffffffffffffffffffffffffffffffffff168173ffffffffffffffffffffffffffffffffffffffff161415611ef8576040517f08c379a0000000000000000000000000000000000000000000000000000000008152600401611eef906127a5565b60405180910390fd5b8073ffffffffffffffffffffffffffffffffffffffff1660008054906101000a900473ffffffffffffffffffffffffffffffffffffffff1673ffffffffffffffffffffffffffffffffffffffff167f8be0079c531659141344cd1fd0a4f28419497f9722a3daafe3b4186f6b6457e060405160405180910390a3806000806101000a81548173ffffffffffffffffffffffffffffffffffffffff021916908373ffffffffffffffffffffffffffffffffffffffff16021790555050565b6000611ff783836040518060400160405280601e81526020017f536166654d6174683a207375627472616374696f6e206f766572666c6f770000815250611a27565b905092915050565b60008135905061200e81612b6a565b92915050565b60008135905061202381612b81565b92915050565b60006020828403121561203b57600080fd5b600061204984828501611fff565b91505092915050565b6000806040838503121561206557600080fd5b600061207385828601611fff565b925050602061208485828601611fff565b9150509250929050565b6000806000606084860312156120a357600080fd5b60006120b186828701611fff565b93505060206120c286828701611fff565b92505060406120d386828701612014565b9150509250925092565b600080604083850312156120f057600080fd5b60006120fe85828601611fff565b925050602061210f85828601612014565b9150509250929050565b60006020828403121561212b57600080fd5b600061213984828501612014565b91505092915050565b61214b81612a41565b82525050565b61215a81612a53565b82525050565b600061216b8261299b565b61217581856129a6565b9350612185818560208601612a96565b61218e81612b59565b840191505092915050565b60006121a66025836129a6565b91507f42455032303a207472616e736665722066726f6d20746865207a65726f20616460008301527f64726573730000000000000000000000000000000000000000000000000000006020830152604082019050919050565b600061220c6024836129a6565b91507f42455032303a20617070726f76652066726f6d20746865207a65726f2061646460008301527f72657373000000000000000000000000000000000000000000000000000000006020830152604082019050919050565b60006122726026836129a6565b91507f4f776e61626c653a206e6577206f776e657220697320746865207a65726f206160008301527f64647265737300000000000000000000000000000000000000000000000000006020830152604082019050919050565b60006122d8601b836129a6565b91507f536166654d6174683a206164646974696f6e206f766572666c6f7700000000006000830152602082019050919050565b60006123186020836129a6565b91507f42455032303a206d696e742076616c7565206e6f7420617574686f72697a65646000830152602082019050919050565b6000612358602e836129a6565b91507f42455032303a204d61726b6574696e6720616e6420507269766174652053616c60008301527f65206361702065786365656465640000000000000000000000000000000000006020830152604082019050919050565b60006123be601f836129a6565b91507f42455032303a2049434f20526f756e64203220636170206578636565646564006000830152602082019050919050565b60006123fe601f836129a6565b91507f42455032303a206d696e7420746f20746865207a65726f2061646472657373006000830152602082019050919050565b600061243e6020836129a6565b91507f4f776e61626c653a2063616c6c6572206973206e6f7420746865206f776e65726000830152602082019050919050565b600061247e601f836129a6565b91507f42455032303a2049434f20526f756e64203120636170206578636565646564006000830152602082019050919050565b60006124be6023836129a6565b91507f42455032303a207472616e7366657220746f20746865207a65726f206164647260008301527f65737300000000000000000000000000000000000000000000000000000000006020830152604082019050919050565b60006125246024836129a6565b91507f42455032303a20746f6f206561726c7920666f72206d696e74696e672072657160008301527f75657374000000000000000000000000000000000000000000000000000000006020830152604082019050919050565b600061258a6021836129a6565b91507f42455032303a206275726e2066726f6d20746865207a65726f2061646472657360008301527f73000000000000000000000000000000000000000000000000000000000000006020830152604082019050919050565b60006125f06035836129a6565b91507f42455032303a204173736f63697465732c20526573657276652c205465616d2060008301527f616e6420536565642063617020657863656564656400000000000000000000006020830152604082019050919050565b60006126566013836129a6565b91507f42455032303a20636170206578636565646564000000000000000000000000006000830152602082019050919050565b60006126966022836129a6565b91507f42455032303a20617070726f766520746f20746865207a65726f20616464726560008301527f73730000000000000000000000000000000000000000000000000000000000006020830152604082019050919050565b6126f881612a7f565b82525050565b61270781612a89565b82525050565b60006020820190506127226000830184612142565b92915050565b600060208201905061273d6000830184612151565b92915050565b6000602082019050818103600083015261275d8184612160565b905092915050565b6000602082019050818103600083015261277e81612199565b9050919050565b6000602082019050818103600083015261279e816121ff565b9050919050565b600060208201905081810360008301526127be81612265565b9050919050565b600060208201905081810360008301526127de816122cb565b9050919050565b600060208201905081810360008301526127fe8161230b565b9050919050565b6000602082019050818103600083015261281e8161234b565b9050919050565b6000602082019050818103600083015261283e816123b1565b9050919050565b6000602082019050818103600083015261285e816123f1565b9050919050565b6000602082019050818103600083015261287e81612431565b9050919050565b6000602082019050818103600083015261289e81612471565b9050919050565b600060208201905081810360008301526128be816124b1565b9050919050565b600060208201905081810360008301526128de81612517565b9050919050565b600060208201905081810360008301526128fe8161257d565b9050919050565b6000602082019050818103600083015261291e816125e3565b9050919050565b6000602082019050818103600083015261293e81612649565b9050919050565b6000602082019050818103600083015261295e81612689565b9050919050565b600060208201905061297a60008301846126ef565b92915050565b600060208201905061299560008301846126fe565b92915050565b600081519050919050565b600082825260208201905092915050565b60006129c282612a7f565b91506129cd83612a7f565b9250827fffffffffffffffffffffffffffffffffffffffffffffffffffffffffffffffff03821115612a0257612a01612afb565b5b828201905092915050565b6000612a1882612a7f565b9150612a2383612a7f565b925082821015612a3657612a35612afb565b5b828203905092915050565b6000612a4c82612a5f565b9050919050565b60008115159050919050565b600073ffffffffffffffffffffffffffffffffffffffff82169050919050565b6000819050919050565b600060ff82169050919050565b60005b83811015612ab4578082015181840152602081019050612a99565b83811115612ac3576000848401525b50505050565b60006002820490506001821680612ae157607f821691505b60208210811415612af557612af4612b2a565b5b50919050565b7f4e487b7100000000000000000000000000000000000000000000000000000000600052601160045260246000fd5b7f4e487b7100000000000000000000000000000000000000000000000000000000600052602260045260246000fd5b6000601f19601f8301169050919050565b612b7381612a41565b8114612b7e57600080fd5b50565b612b8a81612a7f565b8114612b9557600080fd5b5056fe42455032303a207472616e7366657220616d6f756e74206578636565647320616c6c6f77616e636542455032303a207472616e7366657220616d6f756e7420657863656564732062616c616e636542455032303a2064656372656173656420616c6c6f77616e63652062656c6f77207a65726f42455032303a206275726e20616d6f756e7420657863656564732062616c616e636542455032303a206275726e20616d6f756e74206578636565647320616c6c6f77616e6365a264697066735822122030f1aa349782dabe23f4e6f4bd02be2b5cdaa3f12c02febf4c88351c88b36b6c64736f6c63430008000033",
  "immutableReferences": {
    "60": [
      {
        "length": 32,
        "start": 5106
      }
    ],
    "62": [
      {
        "length": 32,
        "start": 3186
      }
    ],
    "64": [
      {
        "length": 32,
        "start": 3693
      }
    ],
    "66": [
      {
        "length": 32,
        "start": 4094
      }
    ],
    "68": [
      {
        "length": 32,
        "start": 4495
      }
    ]
  },
  "source": "// SPDX-License-Identifier: MIT\n\npragma solidity 0.8.0;\n\nimport  \"./IBEP20.sol\";\nimport  \"./Ownable.sol\";\nimport  \"./SafeMath.sol\";\n\ncontract BEP20 is Context, IBEP20, Ownable {\n  using SafeMath for uint256;\n  uint256 constant thirtyDays = 2592000;\n  uint256 constant cliffSixM       = 6;\n  uint256 constant cliffFourM      = 4;\n  uint256 constant cliffThreeM     = 3;\n  uint256 constant cliffOneM       = 2;\n\n  mapping (address => uint256) private _balances;\n\n  mapping (address => mapping (address => uint256)) private _allowances;\n\n  uint256 private _totalSupply;\n  uint256 private _totalSupply_6M;\n  uint256 private _totalSupply_4M;\n  uint256 private _totalSupply_3M;\n  uint256 private _totalSupply_2M;\n\n  bool    private _initialMintIsDone;\n  bool    private _authoriseMin_6M;\n  bool    private _authoriseMin_4M;\n  bool    private _authoriseMin_3M;\n  bool    private _authoriseMin_2M;\n\n  uint256 immutable private _maxSupply;\n  uint256 immutable private _maxSupply_6M;\n  uint256 immutable private _maxSupply_4M;\n  uint256 immutable private _maxSupply_3M;\n  uint256 immutable private _maxSupply_1M;\n\n  uint256 private _wallet1MonthlySupply;\n  uint256 private _wallet2MonthlySupply;\n  uint256 private _wallet3MonthlySupply;\n  uint256 private _wallet4MonthlySupply;\n  uint256 private _wallet5MonthlySupply;\n  uint256 private _wallet6MonthlySupply;\n\n\n  uint256 private _wallet1EndOfIcoSupply;\n  uint256 private _wallet2EndOfIcoSupply;\n  uint256 private _wallet3EndOfIcoSupply;\n  uint256 private _wallet4EndOfIcoSupply;\n  uint256 private _wallet5EndOfIcoSupply;\n  uint256 private _wallet6EndOfIcoSupply;\n\n  uint8   private _decimals;\n  string  private _symbol;\n  string  private _name;\n\n  uint256 private _endOfICO;\n\n  uint256 private _startTime_1M;\n  uint256 private _startTime_3M;\n  uint256 private _startTime_4M;\n  uint256 private _startTime_6M;\n\n  address private _wallet1;\n  address private _wallet2;\n  address private _wallet3;\n  address private _wallet4;\n  address private _wallet5;\n  address private _wallet6;\n\n  constructor(address wallet1, address wallet2, address wallet3,address wallet4, address wallet5, address wallet6)  {\n    _name                 = \"Particicoin\";\n    _symbol               = \"PTC\";\n    _decimals             = 9;\n    _balances[msg.sender] = 0;\n\n    _endOfICO             = block.timestamp; \n    _startTime_1M         = _endOfICO + (thirtyDays * 2); // 2 month after\n    _startTime_3M         = _endOfICO + (thirtyDays * 3); // 3 month after\n    _startTime_4M         = _endOfICO + (thirtyDays * 5); // 5 month after\n    _startTime_6M         = _endOfICO + (thirtyDays * 7); // 7 month after\n\n    _wallet1MonthlySupply        = 115694444*(10**9)          * (10 ** uint256(7)); //\n    _wallet2MonthlySupply        = 95000000*(10**9)            * (10 ** uint256(_decimals)); //\n    _wallet3MonthlySupply        = 214583333.3333337*(10**9)             * (10 ** uint256(_decimals)); //\n    _wallet4MonthlySupply        = 106250000*(10**9)     * (10 ** uint256(2)); //\n    _wallet5MonthlySupply        = 200000000*(10**9)*(10**9)           * (10 ** uint256(8)); //\n\n\n\n    _wallet1EndOfIcoSupply       = 112500000*(10**9)   * (10 ** uint256(7));\n    _wallet2EndOfIcoSupply       = 90000000*(10**9)     * (10 ** uint256(_decimals));\n    _wallet3EndOfIcoSupply       = 424999992*(10**9)      * (10 ** uint256(_decimals));\n    _wallet4EndOfIcoSupply       = 112500000*(10**9)    * (10 ** uint256(2));\n    _wallet5EndOfIcoSupply       = 200000000*(10**9)*(10**9)    * (10 ** uint256(8));\n    _wallet6EndOfIcoSupply       = 1000000000*(10**9)     * (10 ** uint256(_decimals));\n\n\n    _maxSupply_6M         = 4250000000  * (10 ** uint256(_decimals));\n    _maxSupply_4M         = 3000000000    * (10 ** uint256(_decimals));\n    _maxSupply_3M         = 750000000    * (10 ** uint256(_decimals));\n    _maxSupply_1M         = 1000000000*(10**9)    * (10 ** uint256(_decimals));\n\n    _maxSupply            = 10 000 000 000 * (10 ** uint256(_decimals)); // 1,8 MD\n\n    _initialMintIsDone    = false;\n\n\n    _wallet1        = wallet1;\n    _wallet2        = wallet2;\n    _wallet3        = wallet3;\n    _wallet4        = wallet4;\n    _wallet5        = wallet5;\n    _wallet6        = wallet6;\n\n    _mint(_wallet1, _wallet1EndOfIcoSupply);\n    _mint(_wallet2, _wallet2EndOfIcoSupply);\n    _mint(_wallet3, _wallet3EndOfIcoSupply);\n    _mint(_wallet4, _wallet4EndOfIcoSupply);\n    _mint(_wallet5, _wallet5EndOfIcoSupply);\n    _mint(_wallet6, _wallet6EndOfIcoSupply);\n    _totalSupply_2M   = _totalSupply_2M.add(_wallet5EndOfIcoSupply);\n    _totalSupply_3M   = _totalSupply_3M.add(_wallet4EndOfIcoSupply);\n    _totalSupply_4M   = _totalSupply_4M.add(_wallet3EndOfIcoSupply);\n    _totalSupply_6M   = _totalSupply_6M.add(_wallet1EndOfIcoSupply).add(_wallet2EndOfIcoSupply);\n\n    _totalSupply.add(_wallet1EndOfIcoSupply).add(_wallet2EndOfIcoSupply).add(_wallet3EndOfIcoSupply).add(_wallet4EndOfIcoSupply).add(_wallet5EndOfIcoSupply).add(_wallet6EndOfIcoSupply);\n  }\n\n  /**\n   * @dev Returns the bep token owner.\n   */\n  function getOwner() public view  override returns (address) {\n    return owner();\n  }\n  /**\n   * @dev Returns  Round 3 address.\n   */\n  function getRound3Add() external view returns (address) {\n    return _wallet6;\n  }\n\n  /**\n   * @dev Returns  Round 2 address.\n   */\n  function getRaound2Add() external view returns (address) {\n    return _wallet5;\n  }\n\n  /**\n   * @dev Returns  Round 1  address.\n   */\n  function getRound1Add() external view returns (address) {\n    return _wallet4;\n  }\n\n  /**\n   * @dev Returns  Private Sale address.\n   */\n  function getPrivateSaleAdd() external view returns (address) {\n    return _wallet3;\n  }\n\n  /**\n   * @dev Returns  Team and Associates address.\n   */\n  function getTeamAdd() external view returns (address) {\n    return _wallet2;\n  }\n\n  /**\n   * @dev Returns  reserve address.\n   */\n  function getReserveAdd() external view returns (address) {\n    return _wallet1;\n  }\n\n  /**\n   * @dev Returns the token decimals.\n   */\n  function decimals() public view  override returns (uint8) {\n    return _decimals;\n  }\n\n  /**\n   * @dev Returns the token symbol.\n   */\n  function symbol() public view  override returns (string memory) {\n    return _symbol;\n  }\n\n  /**\n  * @dev Returns the token name.\n  */\n  function name() public view  override returns (string memory) {\n    return _name;\n  }\n\n  /**\n   * @dev See {BEP20-totalSupply}.\n   */\n  function totalSupply() public view  override returns (uint256) {\n    return _totalSupply;\n  }\n\n  /**\n   * @dev See {BEP20-balanceOf}.\n   */\n  function balanceOf(address account) public view  override returns (uint256) {\n    return _balances[account];\n  }\n\n  /**\n   * @dev Returns the cap on the token's total supply.\n   */\n   function maxSupply() public view  returns (uint256) {\n       return _maxSupply;\n   }\n\n   /**\n   * @dev Returns the end of ico .\n   */\n   function getEndOfICO() public view  returns (uint256) {\n       return _endOfICO;\n   }\n\n  /**\n   * @dev See {BEP20-startTime}.\n   */\n   function startTime() external view returns (uint256) {\n      return _endOfICO;\n   }\n\n  /**\n   * @dev See {BEP20-transfer}.\n   *\n   * Requirements:\n   *\n   * - `recipient` cannot be the zero address.\n   * - the caller must have a balance of at least `amount`.\n   */\n  function transfer(address recipient, uint256 amount) public virtual override returns (bool) {\n    _transfer(_msgSender(), recipient, amount);\n    return true;\n  }\n\n  /**\n   * @dev See {BEP20-allowance}.\n   */\n  function allowance(address owner, address spender) public view  override returns (uint256) {\n    return _allowances[owner][spender];\n  }\n\n  /**\n   * @dev See {BEP20-approve}.\n   *\n   * Requirements:\n   *\n   * - `spender` cannot be the zero address.\n   */\n  function approve(address spender, uint256 amount) public virtual  override returns (bool) {\n    _approve(_msgSender(), spender, amount);\n    return true;\n  }\n\n  /**\n   * @dev See {BEP20-transferFrom}.\n   *\n   * Emits an {Approval} event indicating the updated allowance. This is not\n   * required by the EIP. See the note at the beginning of {BEP20};\n   *\n   * Requirements:\n   * - `sender` and `recipient` cannot be the zero address.\n   * - `sender` must have a balance of at least `amount`.\n   * - the caller must have allowance for `sender`'s tokens of at least\n   * `amount`.\n   */\n  function transferFrom(address sender, address recipient, uint256 amount) public virtual  override returns (bool) {\n    _transfer(sender, recipient, amount);\n    _approve(sender, _msgSender(), _allowances[sender][_msgSender()].sub(amount, \"BEP20: transfer amount exceeds allowance\"));\n    return true;\n  }\n\n  /**\n   * @dev Atomically increases the allowance granted to `spender` by the caller.\n   *\n   * This is an alternative to {approve} that can be used as a mitigation for\n   * problems described in {BEP20-approve}.\n   *\n   * Emits an {Approval} event indicating the updated allowance.\n   *\n   * Requirements:\n   *\n   * - `spender` cannot be the zero address.\n   */\n  function increaseAllowance(address spender, uint256 addedValue) public returns (bool) {\n    _approve(_msgSender(), spender, _allowances[_msgSender()][spender].add(addedValue));\n    return true;\n  }\n\n  /**\n   * @dev Atomically decreases the allowance granted to `spender` by the caller.\n   *\n   * This is an alternative to {approve} that can be used as a mitigation for\n   * problems described in {BEP20-approve}.\n   *\n   * Emits an {Approval} event indicating the updated allowance.\n   *\n   * Requirements:\n   *\n   * - `spender` cannot be the zero address.\n   * - `spender` must have allowance for the caller of at least\n   * `subtractedValue`.\n   */\n  function decreaseAllowance(address spender, uint256 subtractedValue) public returns (bool) {\n    _approve(_msgSender(), spender, _allowances[_msgSender()][spender].sub(subtractedValue, \"BEP20: decreased allowance below zero\"));\n    return true;\n  }\n\n  /** @dev Creates `amount` tokens and assigns them to the right\n\t * adresses (associatesAdd, teamAdd, seedAdd, privSaleAdd,\n\t * marketingAdd, icoRound1Add , icoRound2Add, icoRound3Add,\n\t * reserveAdd), increasing _totalSupply_XM sub-supplies and\n\t * the total supply\n  */\n  function mint(uint256 mintValue) public onlyOwner returns (bool) {\n        require(( mintValue == cliffSixM) ||  ( mintValue == cliffFourM) || ( mintValue == cliffThreeM) || ( mintValue == cliffOneM), \"BEP20: mint value not authorized\");\n        if ( mintValue == cliffSixM){\n            require(block.timestamp >= _startTime_6M , \"BEP20: too early for minting request\");\n            require(_totalSupply_6M.add(_wallet1MonthlySupply).add(_wallet2MonthlySupply) <= _maxSupply_6M, \"BEP20: Reserve, Associates and Team cap exceeded\");\n            require(_totalSupply.add(_wallet1MonthlySupply).add(_wallet2MonthlySupply) <= maxSupply(), \"BEP20: cap exceeded\");\n            _mint(_wallet1, _wallet1MonthlySupply);\n            _mint(_wallet2, _wallet2MonthlySupply);\n            _totalSupply_6M   = _totalSupply_6M.add(_wallet1MonthlySupply).add(_wallet2MonthlySupply);\n            _startTime_6M     = _startTime_6M.add(thirtyDays);   \n        }\n        if ( mintValue == cliffFourM){\n            require(block.timestamp >= _startTime_4M , \"BEP20: too early for minting request\");\n            require(_totalSupply_4M.add(_wallet3MonthlySupply) <= _maxSupply_4M, \"BEP20: Marketing and Private Sale cap exceeded\");\n            require(_totalSupply.add(_wallet3MonthlySupply) <= maxSupply(), \"BEP20: cap exceeded\");\n            _mint(_wallet3, _wallet3MonthlySupply);\n            _totalSupply_4M   = _totalSupply_4M.add(_wallet3MonthlySupply);\n            _startTime_4M     = _startTime_4M.add(thirtyDays);  \n        }\n        if ( mintValue == cliffThreeM){\n            require(block.timestamp >= _startTime_3M, \"BEP20: too early for minting request\");\n            require(_totalSupply_3M.add(_wallet4MonthlySupply)<= _maxSupply_3M, \"BEP20: ICO Round 1 cap exceeded\");\n            require(_totalSupply.add(_wallet4MonthlySupply) <= maxSupply(), \"BEP20: cap exceeded\");\n            _mint(_wallet4, _wallet4MonthlySupply);\n            _totalSupply_3M   = _totalSupply_3M.add(_wallet4MonthlySupply);\n            _startTime_3M     = _startTime_3M.add(thirtyDays);\n        }\n        if ( mintValue == cliffOneM){\n            require(block.timestamp >= _startTime_1M, \"BEP20: too early for minting request\");\n            require(_totalSupply_2M.add(_wallet5MonthlySupply)<= _maxSupply_1M, \"BEP20: ICO Round 2 cap exceeded\");\n            require(_totalSupply.add(_wallet5MonthlySupply) <= maxSupply(), \"BEP20: cap exceeded\");\n            _mint(_wallet5, _wallet5MonthlySupply);\n            _totalSupply_2M   = _totalSupply_2M.add(_wallet5MonthlySupply);\n            _startTime_1M     = _startTime_1M.add(thirtyDays);\n        }\n    return true;\n  }\n\n\n  /**\n    * @dev Destroys `amount` tokens from the caller.\n    *\n    * See {ERC20-_burn}.\n    */\n  function burn(uint256 amount) public  returns (bool) {\n    _burn(_msgSender(), amount);\n    return true;\n  }\n\n  /**\n     * @dev Destroys `amount` tokens from `account`, deducting from the caller's\n     * allowance.\n     *\n     * See {ERC20-_burn} and {ERC20-allowance}.\n     *\n     * Requirements:\n     *\n     * - the caller must have allowance for ``accounts``'s tokens of at least\n     * `amount`.\n     */\n    function burnFrom(address account, uint256 amount) public returns (bool) {\n        _burnFrom(account, amount);\n        return true;\n    }\n\n  /**\n   * @dev Moves tokens `amount` from `sender` to `recipient`.\n   *\n   * This is internal function is equivalent to {transfer}, and can be used to\n   * e.g. implement automatic token fees, slashing mechanisms, etc.\n   *\n   * Emits a {Transfer} event.\n   *\n   * Requirements:\n   *\n   * - `sender` cannot be the zero address.\n   * - `recipient` cannot be the zero address.\n   * - `sender` must have a balance of at least `amount`.\n   */\n  function _transfer(address sender, address recipient, uint256 amount) internal virtual {\n    require(sender != address(0), \"BEP20: transfer from the zero address\");\n    require(recipient != address(0), \"BEP20: transfer to the zero address\");\n    _balances[sender] = _balances[sender].sub(amount, \"BEP20: transfer amount exceeds balance\");\n    _balances[recipient] = _balances[recipient].add(amount);\n    emit Transfer(sender, recipient, amount);\n  }\n\n  /** @dev Creates `amount` tokens and assigns them to `account`, increasing\n   * the total supply.\n   *\n   * Emits a {Transfer} event with `from` set to the zero address.\n   *\n   * Requirements\n   *\n   * - `to` cannot be the zero address.\n   */\n  function _mint(address account, uint256 amount) internal {\n    require(account != address(0), \"BEP20: mint to the zero address\");\n\n    _totalSupply = _totalSupply.add(amount);\n    _balances[account] = _balances[account].add(amount);\n    emit Transfer(address(0), account, amount);\n  }\n\n  /**\n   * @dev Destroys `amount` tokens from `account`, reducing the\n   * total supply.\n   *\n   * Emits a {Transfer} event with `to` set to the zero address.\n   *\n   * Requirements\n   *\n   * - `account` cannot be the zero address.\n   * - `account` must have at least `amount` tokens.\n   */\n  function _burn(address account, uint256 amount) internal {\n    require(account != address(0), \"BEP20: burn from the zero address\");\n\n    _balances[account] = _balances[account].sub(amount, \"BEP20: burn amount exceeds balance\");\n    _totalSupply = _totalSupply.sub(amount);\n    emit Transfer(account, address(0), amount);\n  }\n\n  /**\n   * @dev Sets `amount` as the allowance of `spender` over the `owner`s tokens.\n   *\n   * This is internal function is equivalent to `approve`, and can be used to\n   * e.g. set automatic allowances for certain subsystems, etc.\n   *\n   * Emits an {Approval} event.\n   *\n   * Requirements:\n   *\n   * - `owner` cannot be the zero address.\n   * - `spender` cannot be the zero address.\n   */\n  function _approve(address owner, address spender, uint256 amount) internal virtual {\n    require(owner != address(0), \"BEP20: approve from the zero address\");\n    require(spender != address(0), \"BEP20: approve to the zero address\");\n\n    _allowances[owner][spender] = amount;\n    emit Approval(owner, spender, amount);\n  }\n\n  /**\n   * @dev Destroys `amount` tokens from `account`.`amount` is then deducted\n   * from the caller's allowance.\n   *\n   * See {_burn} and {_approve}.\n   */\n  function _burnFrom(address account, uint256 amount) internal {\n    _approve(account, _msgSender(), _allowances[account][_msgSender()].sub(amount, \"BEP20: burn amount exceeds allowance\"));\n    _burn(account, amount);\n  }\n\n\n}\n",
  "sourcePath": "/Users/antoine/git/Particicoin-smart-contracts/contracts/BEP20.sol",
  "compiler": {
    "name": "solc",
    "version": "0.8.0+commit.c7dfd78e.Emscripten.clang"
  },
  "schemaVersion": "3.4.7",
  "updatedAt": "2022-04-12T13:31:17.233Z",
  "networkType": "ethereum",
  "devdoc": {
    "kind": "dev",
    "methods": {
      "allowance(address,address)": {
        "details": "See {BEP20-allowance}."
      },
      "approve(address,uint256)": {
        "details": "See {BEP20-approve}. Requirements: - `spender` cannot be the zero address."
      },
      "balanceOf(address)": {
        "details": "See {BEP20-balanceOf}."
      },
      "burn(uint256)": {
        "details": "Destroys `amount` tokens from the caller. See {ERC20-_burn}."
      },
      "burnFrom(address,uint256)": {
        "details": "Destroys `amount` tokens from `account`, deducting from the caller's allowance. See {ERC20-_burn} and {ERC20-allowance}. Requirements: - the caller must have allowance for ``accounts``'s tokens of at least `amount`."
      },
      "decimals()": {
        "details": "Returns the token decimals."
      },
      "decreaseAllowance(address,uint256)": {
        "details": "Atomically decreases the allowance granted to `spender` by the caller. This is an alternative to {approve} that can be used as a mitigation for problems described in {BEP20-approve}. Emits an {Approval} event indicating the updated allowance. Requirements: - `spender` cannot be the zero address. - `spender` must have allowance for the caller of at least `subtractedValue`."
      },
      "getEndOfICO()": {
        "details": "Returns the end of ico ."
      },
      "getOwner()": {
        "details": "Returns the bep token owner."
      },
      "getPrivateSaleAdd()": {
        "details": "Returns  Private Sale address."
      },
      "getRaound2Add()": {
        "details": "Returns  Round 2 address."
      },
      "getReserveAdd()": {
        "details": "Returns  reserve address."
      },
      "getRound1Add()": {
        "details": "Returns  Round 1  address."
      },
      "getRound3Add()": {
        "details": "Returns  Round 3 address."
      },
      "getTeamAdd()": {
        "details": "Returns  Team and Associates address."
      },
      "increaseAllowance(address,uint256)": {
        "details": "Atomically increases the allowance granted to `spender` by the caller. This is an alternative to {approve} that can be used as a mitigation for problems described in {BEP20-approve}. Emits an {Approval} event indicating the updated allowance. Requirements: - `spender` cannot be the zero address."
      },
      "maxSupply()": {
        "details": "Returns the cap on the token's total supply."
      },
      "mint(uint256)": {
        "details": "Creates `amount` tokens and assigns them to the right adresses (associatesAdd, teamAdd, seedAdd, privSaleAdd, marketingAdd, icoRound1Add , icoRound2Add, icoRound3Add, reserveAdd), increasing _totalSupply_XM sub-supplies and the total supply"
      },
      "name()": {
        "details": "Returns the token name."
      },
      "owner()": {
        "details": "Returns the address of the current owner."
      },
      "renounceOwnership()": {
        "details": "Leaves the contract without owner. It will not be possible to call `onlyOwner` functions anymore. Can only be called by the current owner. NOTE: Renouncing ownership will leave the contract without an owner, thereby removing any functionality that is only available to the owner."
      },
      "startTime()": {
        "details": "See {BEP20-startTime}."
      },
      "symbol()": {
        "details": "Returns the token symbol."
      },
      "totalSupply()": {
        "details": "See {BEP20-totalSupply}."
      },
      "transfer(address,uint256)": {
        "details": "See {BEP20-transfer}. Requirements: - `recipient` cannot be the zero address. - the caller must have a balance of at least `amount`."
      },
      "transferFrom(address,address,uint256)": {
        "details": "See {BEP20-transferFrom}. Emits an {Approval} event indicating the updated allowance. This is not required by the EIP. See the note at the beginning of {BEP20}; Requirements: - `sender` and `recipient` cannot be the zero address. - `sender` must have a balance of at least `amount`. - the caller must have allowance for `sender`'s tokens of at least `amount`."
      },
      "transferOwnership(address)": {
        "details": "Transfers ownership of the contract to a new account (`newOwner`). Can only be called by the current owner."
      }
    },
    "version": 1
  },
  "userdoc": {
    "kind": "user",
    "methods": {},
    "version": 1
  }
}